{
  "_format": "hh-sol-artifact-1",
  "contractName": "TicketFactory",
  "sourceName": "contracts/TicketFactory.sol",
  "abi": [
    {
      "anonymous": false,
      "inputs": [
        {
          "indexed": true,
          "internalType": "address",
          "name": "eventAddress",
          "type": "address"
        }
      ],
      "name": "EventCreated",
      "type": "event"
    },
    {
      "inputs": [
        {
          "internalType": "uint256",
          "name": "",
          "type": "uint256"
        }
      ],
      "name": "allEvents",
      "outputs": [
        {
          "internalType": "address",
          "name": "",
          "type": "address"
        }
      ],
      "stateMutability": "view",
      "type": "function"
    },
    {
      "inputs": [
        {
          "internalType": "string",
          "name": "_eventName",
          "type": "string"
        },
        {
          "internalType": "string",
          "name": "_symbol",
          "type": "string"
        }
      ],
      "name": "createEvent",
      "outputs": [],
      "stateMutability": "nonpayable",
      "type": "function"
    },
    {
      "inputs": [],
      "name": "getAllEvents",
      "outputs": [
        {
          "internalType": "address[]",
          "name": "",
          "type": "address[]"
        }
      ],
      "stateMutability": "view",
      "type": "function"
    },
    {
      "inputs": [
        {
          "internalType": "address",
          "name": "organizer",
          "type": "address"
        }
      ],
      "name": "getOrganizerEvents",
      "outputs": [
        {
          "internalType": "address[]",
          "name": "",
          "type": "address[]"
        }
      ],
      "stateMutability": "view",
      "type": "function"
    }
  ],
  "bytecode": "0x6080604052348015600f57600080fd5b5061364e8061001f6000396000f3fe608060405234801561001057600080fd5b506004361061004c5760003560e01c80633bec5cff14610051578063c27a500d14610081578063e257a94c1461009f578063ff9f5970146100bb575b600080fd5b61006b60048036038101906100669190610463565b6100eb565b60405161007891906104d1565b60405180910390f35b61008961012a565b60405161009691906105aa565b60405180910390f35b6100b960048036038101906100b49190610712565b6101b8565b005b6100d560048036038101906100d091906107b6565b61033f565b6040516100e291906105aa565b60405180910390f35b600081815481106100fb57600080fd5b906000526020600020016000915054906101000a900473ffffffffffffffffffffffffffffffffffffffff1681565b606060008054806020026020016040519081016040528092919081815260200182805480156101ae57602002820191906000526020600020905b8160009054906101000a900473ffffffffffffffffffffffffffffffffffffffff1673ffffffffffffffffffffffffffffffffffffffff1681526020019060010190808311610164575b5050505050905090565b60008282336040516101c99061040c565b6101d593929190610862565b604051809103906000f0801580156101f1573d6000803e3d6000fd5b5090506000819080600181540180825580915050600190039060005260206000200160009091909190916101000a81548173ffffffffffffffffffffffffffffffffffffffff021916908373ffffffffffffffffffffffffffffffffffffffff160217905550600160003373ffffffffffffffffffffffffffffffffffffffff1673ffffffffffffffffffffffffffffffffffffffff168152602001908152602001600020819080600181540180825580915050600190039060005260206000200160009091909190916101000a81548173ffffffffffffffffffffffffffffffffffffffff021916908373ffffffffffffffffffffffffffffffffffffffff1602179055508073ffffffffffffffffffffffffffffffffffffffff167ffc8a4c0621b9788c4dbe57053a51ce2d22625a067d039f38004df2a07ca755a460405160405180910390a2505050565b6060600160008373ffffffffffffffffffffffffffffffffffffffff1673ffffffffffffffffffffffffffffffffffffffff16815260200190815260200160002080548060200260200160405190810160405280929190818152602001828054801561040057602002820191906000526020600020905b8160009054906101000a900473ffffffffffffffffffffffffffffffffffffffff1673ffffffffffffffffffffffffffffffffffffffff16815260200190600101908083116103b6575b50505050509050919050565b612d71806108a883390190565b6000604051905090565b600080fd5b600080fd5b6000819050919050565b6104408161042d565b811461044b57600080fd5b50565b60008135905061045d81610437565b92915050565b60006020828403121561047957610478610423565b5b60006104878482850161044e565b91505092915050565b600073ffffffffffffffffffffffffffffffffffffffff82169050919050565b60006104bb82610490565b9050919050565b6104cb816104b0565b82525050565b60006020820190506104e660008301846104c2565b92915050565b600081519050919050565b600082825260208201905092915050565b6000819050602082019050919050565b610521816104b0565b82525050565b60006105338383610518565b60208301905092915050565b6000602082019050919050565b6000610557826104ec565b61056181856104f7565b935061056c83610508565b8060005b8381101561059d5781516105848882610527565b975061058f8361053f565b925050600181019050610570565b5085935050505092915050565b600060208201905081810360008301526105c4818461054c565b905092915050565b600080fd5b600080fd5b6000601f19601f8301169050919050565b7f4e487b7100000000000000000000000000000000000000000000000000000000600052604160045260246000fd5b61061f826105d6565b810181811067ffffffffffffffff8211171561063e5761063d6105e7565b5b80604052505050565b6000610651610419565b905061065d8282610616565b919050565b600067ffffffffffffffff82111561067d5761067c6105e7565b5b610686826105d6565b9050602081019050919050565b82818337600083830152505050565b60006106b56106b084610662565b610647565b9050828152602081018484840111156106d1576106d06105d1565b5b6106dc848285610693565b509392505050565b600082601f8301126106f9576106f86105cc565b5b81356107098482602086016106a2565b91505092915050565b6000806040838503121561072957610728610423565b5b600083013567ffffffffffffffff81111561074757610746610428565b5b610753858286016106e4565b925050602083013567ffffffffffffffff81111561077457610773610428565b5b610780858286016106e4565b9150509250929050565b610793816104b0565b811461079e57600080fd5b50565b6000813590506107b08161078a565b92915050565b6000602082840312156107cc576107cb610423565b5b60006107da848285016107a1565b91505092915050565b600081519050919050565b600082825260208201905092915050565b60005b8381101561081d578082015181840152602081019050610802565b60008484015250505050565b6000610834826107e3565b61083e81856107ee565b935061084e8185602086016107ff565b610857816105d6565b840191505092915050565b6000606082019050818103600083015261087c8186610829565b905081810360208301526108908185610829565b905061089f60408301846104c2565b94935050505056fe60806040526064600755662386f26fc1000060095534801561002057600080fd5b50604051612d71380380612d71833981810160405281019061004291906103cb565b80838381600090816100549190610677565b5080600190816100649190610677565b505050600073ffffffffffffffffffffffffffffffffffffffff168173ffffffffffffffffffffffffffffffffffffffff16036100d95760006040517f1e4fbdf70000000000000000000000000000000000000000000000000000000081526004016100d09190610758565b60405180910390fd5b6100e88161013260201b60201c565b5033600a60006101000a81548173ffffffffffffffffffffffffffffffffffffffff021916908373ffffffffffffffffffffffffffffffffffffffff160217905550505050610773565b6000600660009054906101000a900473ffffffffffffffffffffffffffffffffffffffff16905081600660006101000a81548173ffffffffffffffffffffffffffffffffffffffff021916908373ffffffffffffffffffffffffffffffffffffffff1602179055508173ffffffffffffffffffffffffffffffffffffffff168173ffffffffffffffffffffffffffffffffffffffff167f8be0079c531659141344cd1fd0a4f28419497f9722a3daafe3b4186f6b6457e060405160405180910390a35050565b6000604051905090565b600080fd5b600080fd5b600080fd5b600080fd5b6000601f19601f8301169050919050565b7f4e487b7100000000000000000000000000000000000000000000000000000000600052604160045260246000fd5b61025f82610216565b810181811067ffffffffffffffff8211171561027e5761027d610227565b5b80604052505050565b60006102916101f8565b905061029d8282610256565b919050565b600067ffffffffffffffff8211156102bd576102bc610227565b5b6102c682610216565b9050602081019050919050565b60005b838110156102f15780820151818401526020810190506102d6565b60008484015250505050565b600061031061030b846102a2565b610287565b90508281526020810184848401111561032c5761032b610211565b5b6103378482856102d3565b509392505050565b600082601f8301126103545761035361020c565b5b81516103648482602086016102fd565b91505092915050565b600073ffffffffffffffffffffffffffffffffffffffff82169050919050565b60006103988261036d565b9050919050565b6103a88161038d565b81146103b357600080fd5b50565b6000815190506103c58161039f565b92915050565b6000806000606084860312156103e4576103e3610202565b5b600084015167ffffffffffffffff81111561040257610401610207565b5b61040e8682870161033f565b935050602084015167ffffffffffffffff81111561042f5761042e610207565b5b61043b8682870161033f565b925050604061044c868287016103b6565b9150509250925092565b600081519050919050565b7f4e487b7100000000000000000000000000000000000000000000000000000000600052602260045260246000fd5b600060028204905060018216806104a857607f821691505b6020821081036104bb576104ba610461565b5b50919050565b60008190508160005260206000209050919050565b60006020601f8301049050919050565b600082821b905092915050565b6000600883026105237fffffffffffffffffffffffffffffffffffffffffffffffffffffffffffffffff826104e6565b61052d86836104e6565b95508019841693508086168417925050509392505050565b6000819050919050565b6000819050919050565b600061057461056f61056a84610545565b61054f565b610545565b9050919050565b6000819050919050565b61058e83610559565b6105a261059a8261057b565b8484546104f3565b825550505050565b600090565b6105b76105aa565b6105c2818484610585565b505050565b5b818110156105e6576105db6000826105af565b6001810190506105c8565b5050565b601f82111561062b576105fc816104c1565b610605846104d6565b81016020851015610614578190505b610628610620856104d6565b8301826105c7565b50505b505050565b600082821c905092915050565b600061064e60001984600802610630565b1980831691505092915050565b6000610667838361063d565b9150826002028217905092915050565b61068082610456565b67ffffffffffffffff81111561069957610698610227565b5b6106a38254610490565b6106ae8282856105ea565b600060209050601f8311600181146106e157600084156106cf578287015190505b6106d9858261065b565b865550610741565b601f1984166106ef866104c1565b60005b82811015610717578489015182556001820191506020850194506020810190506106f2565b868310156107345784890151610730601f89168261063d565b8355505b6001600288020188555050505b505050505050565b6107528161038d565b82525050565b600060208201905061076d6000830184610749565b92915050565b6125ef806107826000396000f3fe60806040526004361061014b5760003560e01c8063715018a6116100b6578063b78da3861161006f578063b78da38614610473578063b88d4fde1461048a578063c87b56dd146104b3578063d5abeb01146104f0578063e985e9c51461051b578063f2fde38b146105585761014b565b8063715018a614610387578063771282f61461039e5780637d32adb4146103c95780638da5cb5b146103f457806395d89b411461041f578063a22cb4651461044a5761014b565b806323b872dd1161010857806323b872dd1461026557806342842e0e1461028e57806361203265146102b75780636352211e146102e25780636817c76c1461031f57806370a082311461034a5761014b565b806301ffc9a71461015057806306fdde031461018d578063081812fc146101b857806308e9bd26146101f5578063095ea7b3146102115780631209b1f61461023a575b600080fd5b34801561015c57600080fd5b5061017760048036038101906101729190611cb6565b610581565b6040516101849190611cfe565b60405180910390f35b34801561019957600080fd5b506101a2610663565b6040516101af9190611da9565b60405180910390f35b3480156101c457600080fd5b506101df60048036038101906101da9190611e01565b6106f5565b6040516101ec9190611e6f565b60405180910390f35b61020f600480360381019061020a9190611eb6565b610711565b005b34801561021d57600080fd5b5061023860048036038101906102339190611ee3565b61082a565b005b34801561024657600080fd5b5061024f610840565b60405161025c9190611f32565b60405180910390f35b34801561027157600080fd5b5061028c60048036038101906102879190611f4d565b61084a565b005b34801561029a57600080fd5b506102b560048036038101906102b09190611f4d565b61094c565b005b3480156102c357600080fd5b506102cc61096c565b6040516102d99190611e6f565b60405180910390f35b3480156102ee57600080fd5b5061030960048036038101906103049190611e01565b610992565b6040516103169190611e6f565b60405180910390f35b34801561032b57600080fd5b506103346109a4565b6040516103419190611f32565b60405180910390f35b34801561035657600080fd5b50610371600480360381019061036c9190611eb6565b6109aa565b60405161037e9190611f32565b60405180910390f35b34801561039357600080fd5b5061039c610a64565b005b3480156103aa57600080fd5b506103b3610a78565b6040516103c09190611f32565b60405180910390f35b3480156103d557600080fd5b506103de610a7e565b6040516103eb9190611e6f565b60405180910390f35b34801561040057600080fd5b50610409610aa8565b6040516104169190611e6f565b60405180910390f35b34801561042b57600080fd5b50610434610ad2565b6040516104419190611da9565b60405180910390f35b34801561045657600080fd5b50610471600480360381019061046c9190611fcc565b610b64565b005b34801561047f57600080fd5b50610488610b7a565b005b34801561049657600080fd5b506104b160048036038101906104ac9190612141565b610bd2565b005b3480156104bf57600080fd5b506104da60048036038101906104d59190611e01565b610bf7565b6040516104e79190611da9565b60405180910390f35b3480156104fc57600080fd5b50610505610c60565b6040516105129190611f32565b60405180910390f35b34801561052757600080fd5b50610542600480360381019061053d91906121c4565b610c66565b60405161054f9190611cfe565b60405180910390f35b34801561056457600080fd5b5061057f600480360381019061057a9190611eb6565b610cfa565b005b60007f80ac58cd000000000000000000000000000000000000000000000000000000007bffffffffffffffffffffffffffffffffffffffffffffffffffffffff1916827bffffffffffffffffffffffffffffffffffffffffffffffffffffffff1916148061064c57507f5b5e139f000000000000000000000000000000000000000000000000000000007bffffffffffffffffffffffffffffffffffffffffffffffffffffffff1916827bffffffffffffffffffffffffffffffffffffffffffffffffffffffff1916145b8061065c575061065b82610d80565b5b9050919050565b60606000805461067290612233565b80601f016020809104026020016040519081016040528092919081815260200182805461069e90612233565b80156106eb5780601f106106c0576101008083540402835291602001916106eb565b820191906000526020600020905b8154815290600101906020018083116106ce57829003601f168201915b5050505050905090565b600061070082610dea565b5061070a82610e72565b9050919050565b610719610eaf565b6007546008541061075f576040517f08c379a0000000000000000000000000000000000000000000000000000000008152600401610756906122b0565b60405180910390fd5b60095434146107a3576040517f08c379a000000000000000000000000000000000000000000000000000000000815260040161079a9061231c565b60405180910390fd5b600060016008546107b4919061236b565b90506107c08282610f36565b8173ffffffffffffffffffffffffffffffffffffffff167fe3bc6f5972e89b7adec47f0277204f27cd981570e200dd4d408093535c9e8e69826040516108069190611f32565b60405180910390a2600860008154809291906108219061239f565b91905055505050565b61083c8282610837610f54565b610f5c565b5050565b6000600954905090565b600073ffffffffffffffffffffffffffffffffffffffff168273ffffffffffffffffffffffffffffffffffffffff16036108bc5760006040517f64a0ae920000000000000000000000000000000000000000000000000000000081526004016108b39190611e6f565b60405180910390fd5b60006108d083836108cb610f54565b610f6e565b90508373ffffffffffffffffffffffffffffffffffffffff168173ffffffffffffffffffffffffffffffffffffffff1614610946578382826040517f64283d7b00000000000000000000000000000000000000000000000000000000815260040161093d939291906123e7565b60405180910390fd5b50505050565b61096783838360405180602001604052806000815250610bd2565b505050565b600a60009054906101000a900473ffffffffffffffffffffffffffffffffffffffff1681565b600061099d82610dea565b9050919050565b60095481565b60008073ffffffffffffffffffffffffffffffffffffffff168273ffffffffffffffffffffffffffffffffffffffff1603610a1d5760006040517f89c62b64000000000000000000000000000000000000000000000000000000008152600401610a149190611e6f565b60405180910390fd5b600360008373ffffffffffffffffffffffffffffffffffffffff1673ffffffffffffffffffffffffffffffffffffffff168152602001908152602001600020549050919050565b610a6c610eaf565b610a766000611188565b565b60085481565b6000600a60009054906101000a900473ffffffffffffffffffffffffffffffffffffffff16905090565b6000600660009054906101000a900473ffffffffffffffffffffffffffffffffffffffff16905090565b606060018054610ae190612233565b80601f0160208091040260200160405190810160405280929190818152602001828054610b0d90612233565b8015610b5a5780601f10610b2f57610100808354040283529160200191610b5a565b820191906000526020600020905b815481529060010190602001808311610b3d57829003601f168201915b5050505050905090565b610b76610b6f610f54565b838361124e565b5050565b610b82610eaf565b610b8a610aa8565b73ffffffffffffffffffffffffffffffffffffffff166108fc479081150290604051600060405180830381858888f19350505050158015610bcf573d6000803e3d6000fd5b50565b610bdd84848461084a565b610bf1610be8610f54565b858585856113bd565b50505050565b6060610c0282610dea565b506000610c0d61156e565b90506000815111610c2d5760405180602001604052806000815250610c58565b80610c3784611585565b604051602001610c4892919061245a565b6040516020818303038152906040525b915050919050565b60075481565b6000600560008473ffffffffffffffffffffffffffffffffffffffff1673ffffffffffffffffffffffffffffffffffffffff16815260200190815260200160002060008373ffffffffffffffffffffffffffffffffffffffff1673ffffffffffffffffffffffffffffffffffffffff16815260200190815260200160002060009054906101000a900460ff16905092915050565b610d02610eaf565b600073ffffffffffffffffffffffffffffffffffffffff168173ffffffffffffffffffffffffffffffffffffffff1603610d745760006040517f1e4fbdf7000000000000000000000000000000000000000000000000000000008152600401610d6b9190611e6f565b60405180910390fd5b610d7d81611188565b50565b60007f01ffc9a7000000000000000000000000000000000000000000000000000000007bffffffffffffffffffffffffffffffffffffffffffffffffffffffff1916827bffffffffffffffffffffffffffffffffffffffffffffffffffffffff1916149050919050565b600080610df683611653565b9050600073ffffffffffffffffffffffffffffffffffffffff168173ffffffffffffffffffffffffffffffffffffffff1603610e6957826040517f7e273289000000000000000000000000000000000000000000000000000000008152600401610e609190611f32565b60405180910390fd5b80915050919050565b60006004600083815260200190815260200160002060009054906101000a900473ffffffffffffffffffffffffffffffffffffffff169050919050565b610eb7610f54565b73ffffffffffffffffffffffffffffffffffffffff16610ed5610aa8565b73ffffffffffffffffffffffffffffffffffffffff1614610f3457610ef8610f54565b6040517f118cdaa7000000000000000000000000000000000000000000000000000000008152600401610f2b9190611e6f565b60405180910390fd5b565b610f50828260405180602001604052806000815250611690565b5050565b600033905090565b610f6983838360016116b4565b505050565b600080610f7a84611653565b9050600073ffffffffffffffffffffffffffffffffffffffff168373ffffffffffffffffffffffffffffffffffffffff1614610fbc57610fbb818486611879565b5b600073ffffffffffffffffffffffffffffffffffffffff168173ffffffffffffffffffffffffffffffffffffffff161461104d57610ffe6000856000806116b4565b6001600360008373ffffffffffffffffffffffffffffffffffffffff1673ffffffffffffffffffffffffffffffffffffffff168152602001908152602001600020600082825403925050819055505b600073ffffffffffffffffffffffffffffffffffffffff168573ffffffffffffffffffffffffffffffffffffffff16146110d0576001600360008773ffffffffffffffffffffffffffffffffffffffff1673ffffffffffffffffffffffffffffffffffffffff168152602001908152602001600020600082825401925050819055505b846002600086815260200190815260200160002060006101000a81548173ffffffffffffffffffffffffffffffffffffffff021916908373ffffffffffffffffffffffffffffffffffffffff160217905550838573ffffffffffffffffffffffffffffffffffffffff168273ffffffffffffffffffffffffffffffffffffffff167fddf252ad1be2c89b69c2b068fc378daa952ba7f163c4a11628f55a4df523b3ef60405160405180910390a4809150509392505050565b6000600660009054906101000a900473ffffffffffffffffffffffffffffffffffffffff16905081600660006101000a81548173ffffffffffffffffffffffffffffffffffffffff021916908373ffffffffffffffffffffffffffffffffffffffff1602179055508173ffffffffffffffffffffffffffffffffffffffff168173ffffffffffffffffffffffffffffffffffffffff167f8be0079c531659141344cd1fd0a4f28419497f9722a3daafe3b4186f6b6457e060405160405180910390a35050565b600073ffffffffffffffffffffffffffffffffffffffff168273ffffffffffffffffffffffffffffffffffffffff16036112bf57816040517f5b08ba180000000000000000000000000000000000000000000000000000000081526004016112b69190611e6f565b60405180910390fd5b80600560008573ffffffffffffffffffffffffffffffffffffffff1673ffffffffffffffffffffffffffffffffffffffff16815260200190815260200160002060008473ffffffffffffffffffffffffffffffffffffffff1673ffffffffffffffffffffffffffffffffffffffff16815260200190815260200160002060006101000a81548160ff0219169083151502179055508173ffffffffffffffffffffffffffffffffffffffff168373ffffffffffffffffffffffffffffffffffffffff167f17307eab39ab6107e8899845ad3d59bd9653f200f220920489ca2b5937696c31836040516113b09190611cfe565b60405180910390a3505050565b60008373ffffffffffffffffffffffffffffffffffffffff163b1115611567578273ffffffffffffffffffffffffffffffffffffffff1663150b7a02868685856040518563ffffffff1660e01b815260040161141c94939291906124d3565b6020604051808303816000875af192505050801561145857506040513d601f19601f820116820180604052508101906114559190612534565b60015b6114dc573d8060008114611488576040519150601f19603f3d011682016040523d82523d6000602084013e61148d565b606091505b5060008151036114d457836040517f64a0ae920000000000000000000000000000000000000000000000000000000081526004016114cb9190611e6f565b60405180910390fd5b805181602001fd5b63150b7a0260e01b7bffffffffffffffffffffffffffffffffffffffffffffffffffffffff1916817bffffffffffffffffffffffffffffffffffffffffffffffffffffffff19161461156557836040517f64a0ae9200000000000000000000000000000000000000000000000000000000815260040161155c9190611e6f565b60405180910390fd5b505b5050505050565b606060405180602001604052806000815250905090565b6060600060016115948461193d565b01905060008167ffffffffffffffff8111156115b3576115b2612016565b5b6040519080825280601f01601f1916602001820160405280156115e55781602001600182028036833780820191505090505b509050600082602001820190505b600115611648578080600190039150507f3031323334353637383961626364656600000000000000000000000000000000600a86061a8153600a858161163c5761163b612561565b5b049450600085036115f3575b819350505050919050565b60006002600083815260200190815260200160002060009054906101000a900473ffffffffffffffffffffffffffffffffffffffff169050919050565b61169a8383611a90565b6116af6116a5610f54565b60008585856113bd565b505050565b80806116ed5750600073ffffffffffffffffffffffffffffffffffffffff168273ffffffffffffffffffffffffffffffffffffffff1614155b156118215760006116fd84610dea565b9050600073ffffffffffffffffffffffffffffffffffffffff168373ffffffffffffffffffffffffffffffffffffffff161415801561176857508273ffffffffffffffffffffffffffffffffffffffff168173ffffffffffffffffffffffffffffffffffffffff1614155b801561177b57506117798184610c66565b155b156117bd57826040517fa9fbf51f0000000000000000000000000000000000000000000000000000000081526004016117b49190611e6f565b60405180910390fd5b811561181f57838573ffffffffffffffffffffffffffffffffffffffff168273ffffffffffffffffffffffffffffffffffffffff167f8c5be1e5ebec7d5bd14f71427d1e84f3dd0314c0f7b2291e5b200ac8c7c3b92560405160405180910390a45b505b836004600085815260200190815260200160002060006101000a81548173ffffffffffffffffffffffffffffffffffffffff021916908373ffffffffffffffffffffffffffffffffffffffff16021790555050505050565b611884838383611b89565b61193857600073ffffffffffffffffffffffffffffffffffffffff168373ffffffffffffffffffffffffffffffffffffffff16036118f957806040517f7e2732890000000000000000000000000000000000000000000000000000000081526004016118f09190611f32565b60405180910390fd5b81816040517f177e802f00000000000000000000000000000000000000000000000000000000815260040161192f929190612590565b60405180910390fd5b505050565b600080600090507a184f03e93ff9f4daa797ed6e38ed64bf6a1f010000000000000000831061199b577a184f03e93ff9f4daa797ed6e38ed64bf6a1f010000000000000000838161199157611990612561565b5b0492506040810190505b6d04ee2d6d415b85acef810000000083106119d8576d04ee2d6d415b85acef810000000083816119ce576119cd612561565b5b0492506020810190505b662386f26fc100008310611a0757662386f26fc1000083816119fd576119fc612561565b5b0492506010810190505b6305f5e1008310611a30576305f5e1008381611a2657611a25612561565b5b0492506008810190505b6127108310611a55576127108381611a4b57611a4a612561565b5b0492506004810190505b60648310611a785760648381611a6e57611a6d612561565b5b0492506002810190505b600a8310611a87576001810190505b80915050919050565b600073ffffffffffffffffffffffffffffffffffffffff168273ffffffffffffffffffffffffffffffffffffffff1603611b025760006040517f64a0ae92000000000000000000000000000000000000000000000000000000008152600401611af99190611e6f565b60405180910390fd5b6000611b1083836000610f6e565b9050600073ffffffffffffffffffffffffffffffffffffffff168173ffffffffffffffffffffffffffffffffffffffff1614611b845760006040517f73c6ac6e000000000000000000000000000000000000000000000000000000008152600401611b7b9190611e6f565b60405180910390fd5b505050565b60008073ffffffffffffffffffffffffffffffffffffffff168373ffffffffffffffffffffffffffffffffffffffff1614158015611c4157508273ffffffffffffffffffffffffffffffffffffffff168473ffffffffffffffffffffffffffffffffffffffff161480611c025750611c018484610c66565b5b80611c4057508273ffffffffffffffffffffffffffffffffffffffff16611c2883610e72565b73ffffffffffffffffffffffffffffffffffffffff16145b5b90509392505050565b6000604051905090565b600080fd5b600080fd5b60007fffffffff0000000000000000000000000000000000000000000000000000000082169050919050565b611c9381611c5e565b8114611c9e57600080fd5b50565b600081359050611cb081611c8a565b92915050565b600060208284031215611ccc57611ccb611c54565b5b6000611cda84828501611ca1565b91505092915050565b60008115159050919050565b611cf881611ce3565b82525050565b6000602082019050611d136000830184611cef565b92915050565b600081519050919050565b600082825260208201905092915050565b60005b83811015611d53578082015181840152602081019050611d38565b60008484015250505050565b6000601f19601f8301169050919050565b6000611d7b82611d19565b611d858185611d24565b9350611d95818560208601611d35565b611d9e81611d5f565b840191505092915050565b60006020820190508181036000830152611dc38184611d70565b905092915050565b6000819050919050565b611dde81611dcb565b8114611de957600080fd5b50565b600081359050611dfb81611dd5565b92915050565b600060208284031215611e1757611e16611c54565b5b6000611e2584828501611dec565b91505092915050565b600073ffffffffffffffffffffffffffffffffffffffff82169050919050565b6000611e5982611e2e565b9050919050565b611e6981611e4e565b82525050565b6000602082019050611e846000830184611e60565b92915050565b611e9381611e4e565b8114611e9e57600080fd5b50565b600081359050611eb081611e8a565b92915050565b600060208284031215611ecc57611ecb611c54565b5b6000611eda84828501611ea1565b91505092915050565b60008060408385031215611efa57611ef9611c54565b5b6000611f0885828601611ea1565b9250506020611f1985828601611dec565b9150509250929050565b611f2c81611dcb565b82525050565b6000602082019050611f476000830184611f23565b92915050565b600080600060608486031215611f6657611f65611c54565b5b6000611f7486828701611ea1565b9350506020611f8586828701611ea1565b9250506040611f9686828701611dec565b9150509250925092565b611fa981611ce3565b8114611fb457600080fd5b50565b600081359050611fc681611fa0565b92915050565b60008060408385031215611fe357611fe2611c54565b5b6000611ff185828601611ea1565b925050602061200285828601611fb7565b9150509250929050565b600080fd5b600080fd5b7f4e487b7100000000000000000000000000000000000000000000000000000000600052604160045260246000fd5b61204e82611d5f565b810181811067ffffffffffffffff8211171561206d5761206c612016565b5b80604052505050565b6000612080611c4a565b905061208c8282612045565b919050565b600067ffffffffffffffff8211156120ac576120ab612016565b5b6120b582611d5f565b9050602081019050919050565b82818337600083830152505050565b60006120e46120df84612091565b612076565b905082815260208101848484011115612100576120ff612011565b5b61210b8482856120c2565b509392505050565b600082601f8301126121285761212761200c565b5b81356121388482602086016120d1565b91505092915050565b6000806000806080858703121561215b5761215a611c54565b5b600061216987828801611ea1565b945050602061217a87828801611ea1565b935050604061218b87828801611dec565b925050606085013567ffffffffffffffff8111156121ac576121ab611c59565b5b6121b887828801612113565b91505092959194509250565b600080604083850312156121db576121da611c54565b5b60006121e985828601611ea1565b92505060206121fa85828601611ea1565b9150509250929050565b7f4e487b7100000000000000000000000000000000000000000000000000000000600052602260045260246000fd5b6000600282049050600182168061224b57607f821691505b60208210810361225e5761225d612204565b5b50919050565b7f4d6178696d756d20537570706c79205265616368656400000000000000000000600082015250565b600061229a601683611d24565b91506122a582612264565b602082019050919050565b600060208201905081810360008301526122c98161228d565b9050919050565b7f5072696365206f662074686973207469636b657420697320302e303120455448600082015250565b6000612306602083611d24565b9150612311826122d0565b602082019050919050565b60006020820190508181036000830152612335816122f9565b9050919050565b7f4e487b7100000000000000000000000000000000000000000000000000000000600052601160045260246000fd5b600061237682611dcb565b915061238183611dcb565b92508282019050808211156123995761239861233c565b5b92915050565b60006123aa82611dcb565b91507fffffffffffffffffffffffffffffffffffffffffffffffffffffffffffffffff82036123dc576123db61233c565b5b600182019050919050565b60006060820190506123fc6000830186611e60565b6124096020830185611f23565b6124166040830184611e60565b949350505050565b600081905092915050565b600061243482611d19565b61243e818561241e565b935061244e818560208601611d35565b80840191505092915050565b60006124668285612429565b91506124728284612429565b91508190509392505050565b600081519050919050565b600082825260208201905092915050565b60006124a58261247e565b6124af8185612489565b93506124bf818560208601611d35565b6124c881611d5f565b840191505092915050565b60006080820190506124e86000830187611e60565b6124f56020830186611e60565b6125026040830185611f23565b8181036060830152612514818461249a565b905095945050505050565b60008151905061252e81611c8a565b92915050565b60006020828403121561254a57612549611c54565b5b60006125588482850161251f565b91505092915050565b7f4e487b7100000000000000000000000000000000000000000000000000000000600052601260045260246000fd5b60006040820190506125a56000830185611e60565b6125b26020830184611f23565b939250505056fea2646970667358221220a6c5abedfc8bda49b7aa893ac8f2ee184721363598006f55c8a4f1c613823c4764736f6c634300081c0033a26469706673582212204e7c39a06ec5acced389858329d95e7412e7473de780bd48b815604d4dcda98b64736f6c634300081c0033",
  "linkReferences": {},
  "deployedLinkReferences": {}
}