{
  "_format": "hh-sol-artifact-1",
  "contractName": "TicketFactory",
  "sourceName": "contracts/TicketFactory.sol",
  "abi": [
    {
      "anonymous": false,
      "inputs": [
        {
          "indexed": true,
          "internalType": "address",
          "name": "eventAddress",
          "type": "address"
        }
      ],
      "name": "EventCreated",
      "type": "event"
    },
    {
      "inputs": [
        {
          "internalType": "uint256",
          "name": "",
          "type": "uint256"
        }
      ],
      "name": "allEvents",
      "outputs": [
        {
          "internalType": "address",
          "name": "",
          "type": "address"
        }
      ],
      "stateMutability": "view",
      "type": "function"
    },
    {
      "inputs": [
        {
          "internalType": "string",
          "name": "_eventName",
          "type": "string"
        },
        {
          "internalType": "string",
          "name": "_symbol",
          "type": "string"
        },
        {
          "internalType": "uint256",
          "name": "_mintPrice",
          "type": "uint256"
        }
      ],
      "name": "createEvent",
      "outputs": [],
      "stateMutability": "nonpayable",
      "type": "function"
    },
    {
      "inputs": [],
      "name": "getAllEvents",
      "outputs": [
        {
          "internalType": "address[]",
          "name": "",
          "type": "address[]"
        }
      ],
      "stateMutability": "view",
      "type": "function"
    },
    {
      "inputs": [
        {
          "internalType": "address",
          "name": "organizer",
          "type": "address"
        }
      ],
      "name": "getOrganizerEvents",
      "outputs": [
        {
          "internalType": "address[]",
          "name": "",
          "type": "address[]"
        }
      ],
      "stateMutability": "view",
      "type": "function"
    }
  ],
  "bytecode": "0x6080604052348015600f57600080fd5b5061370e8061001f6000396000f3fe608060405234801561001057600080fd5b506004361061004c5760003560e01c80633bec5cff146100515780635555fe1714610081578063c27a500d1461009d578063ff9f5970146100bb575b600080fd5b61006b60048036038101906100669190610466565b6100eb565b60405161007891906104d4565b60405180910390f35b61009b60048036038101906100969190610635565b61012a565b005b6100a56102b4565b6040516100b2919061077e565b60405180910390f35b6100d560048036038101906100d091906107cc565b610342565b6040516100e2919061077e565b60405180910390f35b600081815481106100fb57600080fd5b906000526020600020016000915054906101000a900473ffffffffffffffffffffffffffffffffffffffff1681565b60008383833360405161013c9061040f565b6101499493929190610887565b604051809103906000f080158015610165573d6000803e3d6000fd5b5090506000819080600181540180825580915050600190039060005260206000200160009091909190916101000a81548173ffffffffffffffffffffffffffffffffffffffff021916908373ffffffffffffffffffffffffffffffffffffffff160217905550600160003373ffffffffffffffffffffffffffffffffffffffff1673ffffffffffffffffffffffffffffffffffffffff168152602001908152602001600020819080600181540180825580915050600190039060005260206000200160009091909190916101000a81548173ffffffffffffffffffffffffffffffffffffffff021916908373ffffffffffffffffffffffffffffffffffffffff1602179055508073ffffffffffffffffffffffffffffffffffffffff167ffc8a4c0621b9788c4dbe57053a51ce2d22625a067d039f38004df2a07ca755a460405160405180910390a250505050565b6060600080548060200260200160405190810160405280929190818152602001828054801561033857602002820191906000526020600020905b8160009054906101000a900473ffffffffffffffffffffffffffffffffffffffff1673ffffffffffffffffffffffffffffffffffffffff16815260200190600101908083116102ee575b5050505050905090565b6060600160008373ffffffffffffffffffffffffffffffffffffffff1673ffffffffffffffffffffffffffffffffffffffff16815260200190815260200160002080548060200260200160405190810160405280929190818152602001828054801561040357602002820191906000526020600020905b8160009054906101000a900473ffffffffffffffffffffffffffffffffffffffff1673ffffffffffffffffffffffffffffffffffffffff16815260200190600101908083116103b9575b50505050509050919050565b612dfe806108db83390190565b6000604051905090565b600080fd5b600080fd5b6000819050919050565b61044381610430565b811461044e57600080fd5b50565b6000813590506104608161043a565b92915050565b60006020828403121561047c5761047b610426565b5b600061048a84828501610451565b91505092915050565b600073ffffffffffffffffffffffffffffffffffffffff82169050919050565b60006104be82610493565b9050919050565b6104ce816104b3565b82525050565b60006020820190506104e960008301846104c5565b92915050565b600080fd5b600080fd5b6000601f19601f8301169050919050565b7f4e487b7100000000000000000000000000000000000000000000000000000000600052604160045260246000fd5b610542826104f9565b810181811067ffffffffffffffff821117156105615761056061050a565b5b80604052505050565b600061057461041c565b90506105808282610539565b919050565b600067ffffffffffffffff8211156105a05761059f61050a565b5b6105a9826104f9565b9050602081019050919050565b82818337600083830152505050565b60006105d86105d384610585565b61056a565b9050828152602081018484840111156105f4576105f36104f4565b5b6105ff8482856105b6565b509392505050565b600082601f83011261061c5761061b6104ef565b5b813561062c8482602086016105c5565b91505092915050565b60008060006060848603121561064e5761064d610426565b5b600084013567ffffffffffffffff81111561066c5761066b61042b565b5b61067886828701610607565b935050602084013567ffffffffffffffff8111156106995761069861042b565b5b6106a586828701610607565b92505060406106b686828701610451565b9150509250925092565b600081519050919050565b600082825260208201905092915050565b6000819050602082019050919050565b6106f5816104b3565b82525050565b600061070783836106ec565b60208301905092915050565b6000602082019050919050565b600061072b826106c0565b61073581856106cb565b9350610740836106dc565b8060005b8381101561077157815161075888826106fb565b975061076383610713565b925050600181019050610744565b5085935050505092915050565b600060208201905081810360008301526107988184610720565b905092915050565b6107a9816104b3565b81146107b457600080fd5b50565b6000813590506107c6816107a0565b92915050565b6000602082840312156107e2576107e1610426565b5b60006107f0848285016107b7565b91505092915050565b600081519050919050565b600082825260208201905092915050565b60005b83811015610833578082015181840152602081019050610818565b60008484015250505050565b600061084a826107f9565b6108548185610804565b9350610864818560208601610815565b61086d816104f9565b840191505092915050565b61088181610430565b82525050565b600060808201905081810360008301526108a1818761083f565b905081810360208301526108b5818661083f565b90506108c46040830185610878565b6108d160608301846104c5565b9594505050505056fe6080604052606460075534801561001557600080fd5b50604051612dfe380380612dfe833981810160405281019061003791906103fe565b808484816000908161004991906106b4565b50806001908161005991906106b4565b505050600073ffffffffffffffffffffffffffffffffffffffff168173ffffffffffffffffffffffffffffffffffffffff16036100ce5760006040517f1e4fbdf70000000000000000000000000000000000000000000000000000000081526004016100c59190610795565b60405180910390fd5b6100dd8161012f60201b60201c565b5033600a60006101000a81548173ffffffffffffffffffffffffffffffffffffffff021916908373ffffffffffffffffffffffffffffffffffffffff16021790555081600981905550505050506107b0565b6000600660009054906101000a900473ffffffffffffffffffffffffffffffffffffffff16905081600660006101000a81548173ffffffffffffffffffffffffffffffffffffffff021916908373ffffffffffffffffffffffffffffffffffffffff1602179055508173ffffffffffffffffffffffffffffffffffffffff168173ffffffffffffffffffffffffffffffffffffffff167f8be0079c531659141344cd1fd0a4f28419497f9722a3daafe3b4186f6b6457e060405160405180910390a35050565b6000604051905090565b600080fd5b600080fd5b600080fd5b600080fd5b6000601f19601f8301169050919050565b7f4e487b7100000000000000000000000000000000000000000000000000000000600052604160045260246000fd5b61025c82610213565b810181811067ffffffffffffffff8211171561027b5761027a610224565b5b80604052505050565b600061028e6101f5565b905061029a8282610253565b919050565b600067ffffffffffffffff8211156102ba576102b9610224565b5b6102c382610213565b9050602081019050919050565b60005b838110156102ee5780820151818401526020810190506102d3565b60008484015250505050565b600061030d6103088461029f565b610284565b9050828152602081018484840111156103295761032861020e565b5b6103348482856102d0565b509392505050565b600082601f83011261035157610350610209565b5b81516103618482602086016102fa565b91505092915050565b6000819050919050565b61037d8161036a565b811461038857600080fd5b50565b60008151905061039a81610374565b92915050565b600073ffffffffffffffffffffffffffffffffffffffff82169050919050565b60006103cb826103a0565b9050919050565b6103db816103c0565b81146103e657600080fd5b50565b6000815190506103f8816103d2565b92915050565b60008060008060808587031215610418576104176101ff565b5b600085015167ffffffffffffffff81111561043657610435610204565b5b6104428782880161033c565b945050602085015167ffffffffffffffff81111561046357610462610204565b5b61046f8782880161033c565b93505060406104808782880161038b565b9250506060610491878288016103e9565b91505092959194509250565b600081519050919050565b7f4e487b7100000000000000000000000000000000000000000000000000000000600052602260045260246000fd5b600060028204905060018216806104ef57607f821691505b602082108103610502576105016104a8565b5b50919050565b60008190508160005260206000209050919050565b60006020601f8301049050919050565b600082821b905092915050565b60006008830261056a7fffffffffffffffffffffffffffffffffffffffffffffffffffffffffffffffff8261052d565b610574868361052d565b95508019841693508086168417925050509392505050565b6000819050919050565b60006105b16105ac6105a78461036a565b61058c565b61036a565b9050919050565b6000819050919050565b6105cb83610596565b6105df6105d7826105b8565b84845461053a565b825550505050565b600090565b6105f46105e7565b6105ff8184846105c2565b505050565b5b81811015610623576106186000826105ec565b600181019050610605565b5050565b601f8211156106685761063981610508565b6106428461051d565b81016020851015610651578190505b61066561065d8561051d565b830182610604565b50505b505050565b600082821c905092915050565b600061068b6000198460080261066d565b1980831691505092915050565b60006106a4838361067a565b9150826002028217905092915050565b6106bd8261049d565b67ffffffffffffffff8111156106d6576106d5610224565b5b6106e082546104d7565b6106eb828285610627565b600060209050601f83116001811461071e576000841561070c578287015190505b6107168582610698565b86555061077e565b601f19841661072c86610508565b60005b828110156107545784890151825560018201915060208501945060208101905061072f565b86831015610771578489015161076d601f89168261067a565b8355505b6001600288020188555050505b505050505050565b61078f816103c0565b82525050565b60006020820190506107aa6000830184610786565b92915050565b61263f806107bf6000396000f3fe6080604052600436106101665760003560e01c8063715018a6116100d1578063a22cb4651161008a578063c87b56dd11610064578063c87b56dd146104f9578063d5abeb0114610536578063e985e9c514610561578063f2fde38b1461059e57610166565b8063a22cb46514610490578063b78da386146104b9578063b88d4fde146104d057610166565b8063715018a6146103a2578063771282f6146103b95780637d32adb4146103e45780638d75fe051461040f5780638da5cb5b1461043a57806395d89b411461046557610166565b806323b872dd1161012357806323b872dd1461028057806342842e0e146102a957806361203265146102d25780636352211e146102fd5780636817c76c1461033a57806370a082311461036557610166565b806301ffc9a71461016b57806306fdde03146101a8578063081812fc146101d357806308e9bd2614610210578063095ea7b31461022c5780631209b1f614610255575b600080fd5b34801561017757600080fd5b50610192600480360381019061018d9190611d06565b6105c7565b60405161019f9190611d4e565b60405180910390f35b3480156101b457600080fd5b506101bd6106a9565b6040516101ca9190611df9565b60405180910390f35b3480156101df57600080fd5b506101fa60048036038101906101f59190611e51565b61073b565b6040516102079190611ebf565b60405180910390f35b61022a60048036038101906102259190611f06565b610757565b005b34801561023857600080fd5b50610253600480360381019061024e9190611f33565b610870565b005b34801561026157600080fd5b5061026a610886565b6040516102779190611f82565b60405180910390f35b34801561028c57600080fd5b506102a760048036038101906102a29190611f9d565b610890565b005b3480156102b557600080fd5b506102d060048036038101906102cb9190611f9d565b610992565b005b3480156102de57600080fd5b506102e76109b2565b6040516102f49190611ebf565b60405180910390f35b34801561030957600080fd5b50610324600480360381019061031f9190611e51565b6109d8565b6040516103319190611ebf565b60405180910390f35b34801561034657600080fd5b5061034f6109ea565b60405161035c9190611f82565b60405180910390f35b34801561037157600080fd5b5061038c60048036038101906103879190611f06565b6109f0565b6040516103999190611f82565b60405180910390f35b3480156103ae57600080fd5b506103b7610aaa565b005b3480156103c557600080fd5b506103ce610abe565b6040516103db9190611f82565b60405180910390f35b3480156103f057600080fd5b506103f9610ac4565b6040516104069190611ebf565b60405180910390f35b34801561041b57600080fd5b50610424610aee565b6040516104319190611f82565b60405180910390f35b34801561044657600080fd5b5061044f610af8565b60405161045c9190611ebf565b60405180910390f35b34801561047157600080fd5b5061047a610b22565b6040516104879190611df9565b60405180910390f35b34801561049c57600080fd5b506104b760048036038101906104b2919061201c565b610bb4565b005b3480156104c557600080fd5b506104ce610bca565b005b3480156104dc57600080fd5b506104f760048036038101906104f29190612191565b610c22565b005b34801561050557600080fd5b50610520600480360381019061051b9190611e51565b610c47565b60405161052d9190611df9565b60405180910390f35b34801561054257600080fd5b5061054b610cb0565b6040516105589190611f82565b60405180910390f35b34801561056d57600080fd5b5061058860048036038101906105839190612214565b610cb6565b6040516105959190611d4e565b60405180910390f35b3480156105aa57600080fd5b506105c560048036038101906105c09190611f06565b610d4a565b005b60007f80ac58cd000000000000000000000000000000000000000000000000000000007bffffffffffffffffffffffffffffffffffffffffffffffffffffffff1916827bffffffffffffffffffffffffffffffffffffffffffffffffffffffff1916148061069257507f5b5e139f000000000000000000000000000000000000000000000000000000007bffffffffffffffffffffffffffffffffffffffffffffffffffffffff1916827bffffffffffffffffffffffffffffffffffffffffffffffffffffffff1916145b806106a257506106a182610dd0565b5b9050919050565b6060600080546106b890612283565b80601f01602080910402602001604051908101604052809291908181526020018280546106e490612283565b80156107315780601f1061070657610100808354040283529160200191610731565b820191906000526020600020905b81548152906001019060200180831161071457829003601f168201915b5050505050905090565b600061074682610e3a565b5061075082610ec2565b9050919050565b61075f610eff565b600754600854106107a5576040517f08c379a000000000000000000000000000000000000000000000000000000000815260040161079c90612300565b60405180910390fd5b60095434146107e9576040517f08c379a00000000000000000000000000000000000000000000000000000000081526004016107e09061236c565b60405180910390fd5b600060016008546107fa91906123bb565b90506108068282610f86565b8173ffffffffffffffffffffffffffffffffffffffff167fe3bc6f5972e89b7adec47f0277204f27cd981570e200dd4d408093535c9e8e698260405161084c9190611f82565b60405180910390a260086000815480929190610867906123ef565b91905055505050565b610882828261087d610fa4565b610fac565b5050565b6000600954905090565b600073ffffffffffffffffffffffffffffffffffffffff168273ffffffffffffffffffffffffffffffffffffffff16036109025760006040517f64a0ae920000000000000000000000000000000000000000000000000000000081526004016108f99190611ebf565b60405180910390fd5b60006109168383610911610fa4565b610fbe565b90508373ffffffffffffffffffffffffffffffffffffffff168173ffffffffffffffffffffffffffffffffffffffff161461098c578382826040517f64283d7b00000000000000000000000000000000000000000000000000000000815260040161098393929190612437565b60405180910390fd5b50505050565b6109ad83838360405180602001604052806000815250610c22565b505050565b600a60009054906101000a900473ffffffffffffffffffffffffffffffffffffffff1681565b60006109e382610e3a565b9050919050565b60095481565b60008073ffffffffffffffffffffffffffffffffffffffff168273ffffffffffffffffffffffffffffffffffffffff1603610a635760006040517f89c62b64000000000000000000000000000000000000000000000000000000008152600401610a5a9190611ebf565b60405180910390fd5b600360008373ffffffffffffffffffffffffffffffffffffffff1673ffffffffffffffffffffffffffffffffffffffff168152602001908152602001600020549050919050565b610ab2610eff565b610abc60006111d8565b565b60085481565b6000600a60009054906101000a900473ffffffffffffffffffffffffffffffffffffffff16905090565b6000600854905090565b6000600660009054906101000a900473ffffffffffffffffffffffffffffffffffffffff16905090565b606060018054610b3190612283565b80601f0160208091040260200160405190810160405280929190818152602001828054610b5d90612283565b8015610baa5780601f10610b7f57610100808354040283529160200191610baa565b820191906000526020600020905b815481529060010190602001808311610b8d57829003601f168201915b5050505050905090565b610bc6610bbf610fa4565b838361129e565b5050565b610bd2610eff565b610bda610af8565b73ffffffffffffffffffffffffffffffffffffffff166108fc479081150290604051600060405180830381858888f19350505050158015610c1f573d6000803e3d6000fd5b50565b610c2d848484610890565b610c41610c38610fa4565b8585858561140d565b50505050565b6060610c5282610e3a565b506000610c5d6115be565b90506000815111610c7d5760405180602001604052806000815250610ca8565b80610c87846115d5565b604051602001610c989291906124aa565b6040516020818303038152906040525b915050919050565b60075481565b6000600560008473ffffffffffffffffffffffffffffffffffffffff1673ffffffffffffffffffffffffffffffffffffffff16815260200190815260200160002060008373ffffffffffffffffffffffffffffffffffffffff1673ffffffffffffffffffffffffffffffffffffffff16815260200190815260200160002060009054906101000a900460ff16905092915050565b610d52610eff565b600073ffffffffffffffffffffffffffffffffffffffff168173ffffffffffffffffffffffffffffffffffffffff1603610dc45760006040517f1e4fbdf7000000000000000000000000000000000000000000000000000000008152600401610dbb9190611ebf565b60405180910390fd5b610dcd816111d8565b50565b60007f01ffc9a7000000000000000000000000000000000000000000000000000000007bffffffffffffffffffffffffffffffffffffffffffffffffffffffff1916827bffffffffffffffffffffffffffffffffffffffffffffffffffffffff1916149050919050565b600080610e46836116a3565b9050600073ffffffffffffffffffffffffffffffffffffffff168173ffffffffffffffffffffffffffffffffffffffff1603610eb957826040517f7e273289000000000000000000000000000000000000000000000000000000008152600401610eb09190611f82565b60405180910390fd5b80915050919050565b60006004600083815260200190815260200160002060009054906101000a900473ffffffffffffffffffffffffffffffffffffffff169050919050565b610f07610fa4565b73ffffffffffffffffffffffffffffffffffffffff16610f25610af8565b73ffffffffffffffffffffffffffffffffffffffff1614610f8457610f48610fa4565b6040517f118cdaa7000000000000000000000000000000000000000000000000000000008152600401610f7b9190611ebf565b60405180910390fd5b565b610fa08282604051806020016040528060008152506116e0565b5050565b600033905090565b610fb98383836001611704565b505050565b600080610fca846116a3565b9050600073ffffffffffffffffffffffffffffffffffffffff168373ffffffffffffffffffffffffffffffffffffffff161461100c5761100b8184866118c9565b5b600073ffffffffffffffffffffffffffffffffffffffff168173ffffffffffffffffffffffffffffffffffffffff161461109d5761104e600085600080611704565b6001600360008373ffffffffffffffffffffffffffffffffffffffff1673ffffffffffffffffffffffffffffffffffffffff168152602001908152602001600020600082825403925050819055505b600073ffffffffffffffffffffffffffffffffffffffff168573ffffffffffffffffffffffffffffffffffffffff1614611120576001600360008773ffffffffffffffffffffffffffffffffffffffff1673ffffffffffffffffffffffffffffffffffffffff168152602001908152602001600020600082825401925050819055505b846002600086815260200190815260200160002060006101000a81548173ffffffffffffffffffffffffffffffffffffffff021916908373ffffffffffffffffffffffffffffffffffffffff160217905550838573ffffffffffffffffffffffffffffffffffffffff168273ffffffffffffffffffffffffffffffffffffffff167fddf252ad1be2c89b69c2b068fc378daa952ba7f163c4a11628f55a4df523b3ef60405160405180910390a4809150509392505050565b6000600660009054906101000a900473ffffffffffffffffffffffffffffffffffffffff16905081600660006101000a81548173ffffffffffffffffffffffffffffffffffffffff021916908373ffffffffffffffffffffffffffffffffffffffff1602179055508173ffffffffffffffffffffffffffffffffffffffff168173ffffffffffffffffffffffffffffffffffffffff167f8be0079c531659141344cd1fd0a4f28419497f9722a3daafe3b4186f6b6457e060405160405180910390a35050565b600073ffffffffffffffffffffffffffffffffffffffff168273ffffffffffffffffffffffffffffffffffffffff160361130f57816040517f5b08ba180000000000000000000000000000000000000000000000000000000081526004016113069190611ebf565b60405180910390fd5b80600560008573ffffffffffffffffffffffffffffffffffffffff1673ffffffffffffffffffffffffffffffffffffffff16815260200190815260200160002060008473ffffffffffffffffffffffffffffffffffffffff1673ffffffffffffffffffffffffffffffffffffffff16815260200190815260200160002060006101000a81548160ff0219169083151502179055508173ffffffffffffffffffffffffffffffffffffffff168373ffffffffffffffffffffffffffffffffffffffff167f17307eab39ab6107e8899845ad3d59bd9653f200f220920489ca2b5937696c31836040516114009190611d4e565b60405180910390a3505050565b60008373ffffffffffffffffffffffffffffffffffffffff163b11156115b7578273ffffffffffffffffffffffffffffffffffffffff1663150b7a02868685856040518563ffffffff1660e01b815260040161146c9493929190612523565b6020604051808303816000875af19250505080156114a857506040513d601f19601f820116820180604052508101906114a59190612584565b60015b61152c573d80600081146114d8576040519150601f19603f3d011682016040523d82523d6000602084013e6114dd565b606091505b50600081510361152457836040517f64a0ae9200000000000000000000000000000000000000000000000000000000815260040161151b9190611ebf565b60405180910390fd5b805181602001fd5b63150b7a0260e01b7bffffffffffffffffffffffffffffffffffffffffffffffffffffffff1916817bffffffffffffffffffffffffffffffffffffffffffffffffffffffff1916146115b557836040517f64a0ae920000000000000000000000000000000000000000000000000000000081526004016115ac9190611ebf565b60405180910390fd5b505b5050505050565b606060405180602001604052806000815250905090565b6060600060016115e48461198d565b01905060008167ffffffffffffffff81111561160357611602612066565b5b6040519080825280601f01601f1916602001820160405280156116355781602001600182028036833780820191505090505b509050600082602001820190505b600115611698578080600190039150507f3031323334353637383961626364656600000000000000000000000000000000600a86061a8153600a858161168c5761168b6125b1565b5b04945060008503611643575b819350505050919050565b60006002600083815260200190815260200160002060009054906101000a900473ffffffffffffffffffffffffffffffffffffffff169050919050565b6116ea8383611ae0565b6116ff6116f5610fa4565b600085858561140d565b505050565b808061173d5750600073ffffffffffffffffffffffffffffffffffffffff168273ffffffffffffffffffffffffffffffffffffffff1614155b1561187157600061174d84610e3a565b9050600073ffffffffffffffffffffffffffffffffffffffff168373ffffffffffffffffffffffffffffffffffffffff16141580156117b857508273ffffffffffffffffffffffffffffffffffffffff168173ffffffffffffffffffffffffffffffffffffffff1614155b80156117cb57506117c98184610cb6565b155b1561180d57826040517fa9fbf51f0000000000000000000000000000000000000000000000000000000081526004016118049190611ebf565b60405180910390fd5b811561186f57838573ffffffffffffffffffffffffffffffffffffffff168273ffffffffffffffffffffffffffffffffffffffff167f8c5be1e5ebec7d5bd14f71427d1e84f3dd0314c0f7b2291e5b200ac8c7c3b92560405160405180910390a45b505b836004600085815260200190815260200160002060006101000a81548173ffffffffffffffffffffffffffffffffffffffff021916908373ffffffffffffffffffffffffffffffffffffffff16021790555050505050565b6118d4838383611bd9565b61198857600073ffffffffffffffffffffffffffffffffffffffff168373ffffffffffffffffffffffffffffffffffffffff160361194957806040517f7e2732890000000000000000000000000000000000000000000000000000000081526004016119409190611f82565b60405180910390fd5b81816040517f177e802f00000000000000000000000000000000000000000000000000000000815260040161197f9291906125e0565b60405180910390fd5b505050565b600080600090507a184f03e93ff9f4daa797ed6e38ed64bf6a1f01000000000000000083106119eb577a184f03e93ff9f4daa797ed6e38ed64bf6a1f01000000000000000083816119e1576119e06125b1565b5b0492506040810190505b6d04ee2d6d415b85acef81000000008310611a28576d04ee2d6d415b85acef81000000008381611a1e57611a1d6125b1565b5b0492506020810190505b662386f26fc100008310611a5757662386f26fc100008381611a4d57611a4c6125b1565b5b0492506010810190505b6305f5e1008310611a80576305f5e1008381611a7657611a756125b1565b5b0492506008810190505b6127108310611aa5576127108381611a9b57611a9a6125b1565b5b0492506004810190505b60648310611ac85760648381611abe57611abd6125b1565b5b0492506002810190505b600a8310611ad7576001810190505b80915050919050565b600073ffffffffffffffffffffffffffffffffffffffff168273ffffffffffffffffffffffffffffffffffffffff1603611b525760006040517f64a0ae92000000000000000000000000000000000000000000000000000000008152600401611b499190611ebf565b60405180910390fd5b6000611b6083836000610fbe565b9050600073ffffffffffffffffffffffffffffffffffffffff168173ffffffffffffffffffffffffffffffffffffffff1614611bd45760006040517f73c6ac6e000000000000000000000000000000000000000000000000000000008152600401611bcb9190611ebf565b60405180910390fd5b505050565b60008073ffffffffffffffffffffffffffffffffffffffff168373ffffffffffffffffffffffffffffffffffffffff1614158015611c9157508273ffffffffffffffffffffffffffffffffffffffff168473ffffffffffffffffffffffffffffffffffffffff161480611c525750611c518484610cb6565b5b80611c9057508273ffffffffffffffffffffffffffffffffffffffff16611c7883610ec2565b73ffffffffffffffffffffffffffffffffffffffff16145b5b90509392505050565b6000604051905090565b600080fd5b600080fd5b60007fffffffff0000000000000000000000000000000000000000000000000000000082169050919050565b611ce381611cae565b8114611cee57600080fd5b50565b600081359050611d0081611cda565b92915050565b600060208284031215611d1c57611d1b611ca4565b5b6000611d2a84828501611cf1565b91505092915050565b60008115159050919050565b611d4881611d33565b82525050565b6000602082019050611d636000830184611d3f565b92915050565b600081519050919050565b600082825260208201905092915050565b60005b83811015611da3578082015181840152602081019050611d88565b60008484015250505050565b6000601f19601f8301169050919050565b6000611dcb82611d69565b611dd58185611d74565b9350611de5818560208601611d85565b611dee81611daf565b840191505092915050565b60006020820190508181036000830152611e138184611dc0565b905092915050565b6000819050919050565b611e2e81611e1b565b8114611e3957600080fd5b50565b600081359050611e4b81611e25565b92915050565b600060208284031215611e6757611e66611ca4565b5b6000611e7584828501611e3c565b91505092915050565b600073ffffffffffffffffffffffffffffffffffffffff82169050919050565b6000611ea982611e7e565b9050919050565b611eb981611e9e565b82525050565b6000602082019050611ed46000830184611eb0565b92915050565b611ee381611e9e565b8114611eee57600080fd5b50565b600081359050611f0081611eda565b92915050565b600060208284031215611f1c57611f1b611ca4565b5b6000611f2a84828501611ef1565b91505092915050565b60008060408385031215611f4a57611f49611ca4565b5b6000611f5885828601611ef1565b9250506020611f6985828601611e3c565b9150509250929050565b611f7c81611e1b565b82525050565b6000602082019050611f976000830184611f73565b92915050565b600080600060608486031215611fb657611fb5611ca4565b5b6000611fc486828701611ef1565b9350506020611fd586828701611ef1565b9250506040611fe686828701611e3c565b9150509250925092565b611ff981611d33565b811461200457600080fd5b50565b60008135905061201681611ff0565b92915050565b6000806040838503121561203357612032611ca4565b5b600061204185828601611ef1565b925050602061205285828601612007565b9150509250929050565b600080fd5b600080fd5b7f4e487b7100000000000000000000000000000000000000000000000000000000600052604160045260246000fd5b61209e82611daf565b810181811067ffffffffffffffff821117156120bd576120bc612066565b5b80604052505050565b60006120d0611c9a565b90506120dc8282612095565b919050565b600067ffffffffffffffff8211156120fc576120fb612066565b5b61210582611daf565b9050602081019050919050565b82818337600083830152505050565b600061213461212f846120e1565b6120c6565b9050828152602081018484840111156121505761214f612061565b5b61215b848285612112565b509392505050565b600082601f8301126121785761217761205c565b5b8135612188848260208601612121565b91505092915050565b600080600080608085870312156121ab576121aa611ca4565b5b60006121b987828801611ef1565b94505060206121ca87828801611ef1565b93505060406121db87828801611e3c565b925050606085013567ffffffffffffffff8111156121fc576121fb611ca9565b5b61220887828801612163565b91505092959194509250565b6000806040838503121561222b5761222a611ca4565b5b600061223985828601611ef1565b925050602061224a85828601611ef1565b9150509250929050565b7f4e487b7100000000000000000000000000000000000000000000000000000000600052602260045260246000fd5b6000600282049050600182168061229b57607f821691505b6020821081036122ae576122ad612254565b5b50919050565b7f4d6178696d756d20537570706c79205265616368656400000000000000000000600082015250565b60006122ea601683611d74565b91506122f5826122b4565b602082019050919050565b60006020820190508181036000830152612319816122dd565b9050919050565b7f5072696365206f662074686973207469636b657420697320302e303120455448600082015250565b6000612356602083611d74565b915061236182612320565b602082019050919050565b6000602082019050818103600083015261238581612349565b9050919050565b7f4e487b7100000000000000000000000000000000000000000000000000000000600052601160045260246000fd5b60006123c682611e1b565b91506123d183611e1b565b92508282019050808211156123e9576123e861238c565b5b92915050565b60006123fa82611e1b565b91507fffffffffffffffffffffffffffffffffffffffffffffffffffffffffffffffff820361242c5761242b61238c565b5b600182019050919050565b600060608201905061244c6000830186611eb0565b6124596020830185611f73565b6124666040830184611eb0565b949350505050565b600081905092915050565b600061248482611d69565b61248e818561246e565b935061249e818560208601611d85565b80840191505092915050565b60006124b68285612479565b91506124c28284612479565b91508190509392505050565b600081519050919050565b600082825260208201905092915050565b60006124f5826124ce565b6124ff81856124d9565b935061250f818560208601611d85565b61251881611daf565b840191505092915050565b60006080820190506125386000830187611eb0565b6125456020830186611eb0565b6125526040830185611f73565b818103606083015261256481846124ea565b905095945050505050565b60008151905061257e81611cda565b92915050565b60006020828403121561259a57612599611ca4565b5b60006125a88482850161256f565b91505092915050565b7f4e487b7100000000000000000000000000000000000000000000000000000000600052601260045260246000fd5b60006040820190506125f56000830185611eb0565b6126026020830184611f73565b939250505056fea2646970667358221220dc7afb4b045583f65f8a4912583f2fb480ebc0e6113d4865d4b4fc99d800d04964736f6c634300081c0033a2646970667358221220b7f4d80f132d3bb3ca503f8acba441727b6e40035ae3b45cfeefe1c230fa7c4064736f6c634300081c0033",
  "linkReferences": {},
  "deployedLinkReferences": {}
}